{
  "contractName": "Tasks",
  "abi": [
    {
      "inputs": [],
      "name": "getTasks",
      "outputs": [
        {
          "internalType": "string[]",
          "name": "",
          "type": "string[]"
        }
      ],
      "stateMutability": "view",
      "type": "function",
      "constant": true
    },
    {
      "inputs": [
        {
          "internalType": "string",
          "name": "_task",
          "type": "string"
        }
      ],
      "name": "setTasks",
      "outputs": [],
      "stateMutability": "nonpayable",
      "type": "function"
    }
  ],
  "bytecode": "0x608060405234801561001057600080fd5b5061058c806100206000396000f3fe608060405234801561001057600080fd5b50600436106100365760003560e01c806304a87e381461003b5780638fd86e2f14610059575b600080fd5b610043610075565b604051610050919061039b565b60405180910390f35b610073600480360381019061006e9190610298565b61014e565b005b60606000805480602002602001604051908101604052809291908181526020016000905b828210156101455783829060005260206000200180546100b8906104b5565b80601f01602080910402602001604051908101604052809291908181526020018280546100e4906104b5565b80156101315780601f1061010657610100808354040283529160200191610131565b820191906000526020600020905b81548152906001019060200180831161011457829003601f168201915b505050505081526020019060010190610099565b50505050905090565b60008190806001815401808255809150506001900390600052602060002001600090919091909150908051906020019061018992919061018d565b5050565b828054610199906104b5565b90600052602060002090601f0160209004810192826101bb5760008555610202565b82601f106101d457805160ff1916838001178555610202565b82800160010185558215610202579182015b828111156102015782518255916020019190600101906101e6565b5b50905061020f9190610213565b5090565b5b8082111561022c576000816000905550600101610214565b5090565b600061024361023e846103ee565b6103bd565b90508281526020810184848401111561025b57600080fd5b610266848285610473565b509392505050565b600082601f83011261027f57600080fd5b813561028f848260208601610230565b91505092915050565b6000602082840312156102aa57600080fd5b600082013567ffffffffffffffff8111156102c457600080fd5b6102d08482850161026e565b91505092915050565b60006102e58383610362565b905092915050565b60006102f88261042e565b6103028185610451565b9350836020820285016103148561041e565b8060005b85811015610350578484038952815161033185826102d9565b945061033c83610444565b925060208a01995050600181019050610318565b50829750879550505050505092915050565b600061036d82610439565b6103778185610462565b9350610387818560208601610482565b61039081610545565b840191505092915050565b600060208201905081810360008301526103b581846102ed565b905092915050565b6000604051905081810181811067ffffffffffffffff821117156103e4576103e3610516565b5b8060405250919050565b600067ffffffffffffffff82111561040957610408610516565b5b601f19601f8301169050602081019050919050565b6000819050602082019050919050565b600081519050919050565b600081519050919050565b6000602082019050919050565b600082825260208201905092915050565b600082825260208201905092915050565b82818337600083830152505050565b60005b838110156104a0578082015181840152602081019050610485565b838111156104af576000848401525b50505050565b600060028204905060018216806104cd57607f821691505b602082108114156104e1576104e06104e7565b5b50919050565b7f4e487b7100000000000000000000000000000000000000000000000000000000600052602260045260246000fd5b7f4e487b7100000000000000000000000000000000000000000000000000000000600052604160045260246000fd5b6000601f19601f830116905091905056fea2646970667358221220c56a456d0bacb945649a0a2e1938509b75e363e9ea16d1640a874005c69aa0e164736f6c63430008000033",
  "immutableReferences": {},
  "source": "// SPDX-License-Identifier: UNLICENSED\npragma solidity ^0.8.0;\npragma experimental ABIEncoderV2;\n\ncontract Tasks {\n    string[] todos;\n    string tasks;\n    function getTasks() public view returns (string[] memory) {\n        return (todos);\n    }\n\n    function setTasks(string memory _task) public {\n        todos.push(_task);\n    }\n}\n",
  "sourcePath": "/Users/patur/Workdir/learning/web3basic/contracts/Tasks.sol",
  "compiler": {
    "name": "solc",
    "version": "0.8.0+commit.c7dfd78e.Emscripten.clang"
  },
  "schemaVersion": "3.4.10",
  "updatedAt": "2022-11-01T11:49:39.543Z",
  "networkType": "ethereum",
  "devdoc": {
    "kind": "dev",
    "methods": {},
    "version": 1
  },
  "userdoc": {
    "kind": "user",
    "methods": {},
    "version": 1
  }
}